{
  "contractName": "EmployeeRegistration",
  "abi": [
    {
      "anonymous": false,
      "inputs": [
        {
          "indexed": true,
          "internalType": "address",
          "name": "registrant",
          "type": "address"
        },
        {
          "indexed": true,
          "internalType": "uint256",
          "name": "id",
          "type": "uint256"
        },
        {
          "indexed": false,
          "internalType": "string",
          "name": "name",
          "type": "string"
        },
        {
          "indexed": false,
          "internalType": "string",
          "name": "email",
          "type": "string"
        },
        {
          "indexed": false,
          "internalType": "string",
          "name": "position",
          "type": "string"
        }
      ],
      "name": "EmployeeRegistered",
      "type": "event"
    },
    {
      "inputs": [
        {
          "internalType": "address",
          "name": "",
          "type": "address"
        }
      ],
      "name": "employeeCount",
      "outputs": [
        {
          "internalType": "uint256",
          "name": "",
          "type": "uint256"
        }
      ],
      "stateMutability": "view",
      "type": "function",
      "constant": true
    },
    {
      "inputs": [
        {
          "internalType": "address",
          "name": "",
          "type": "address"
        },
        {
          "internalType": "uint256",
          "name": "",
          "type": "uint256"
        }
      ],
      "name": "employeeIds",
      "outputs": [
        {
          "internalType": "uint256",
          "name": "",
          "type": "uint256"
        }
      ],
      "stateMutability": "view",
      "type": "function",
      "constant": true
    },
    {
      "inputs": [
        {
          "internalType": "address",
          "name": "",
          "type": "address"
        },
        {
          "internalType": "uint256",
          "name": "",
          "type": "uint256"
        }
      ],
      "name": "employees",
      "outputs": [
        {
          "internalType": "uint256",
          "name": "id",
          "type": "uint256"
        },
        {
          "internalType": "string",
          "name": "name",
          "type": "string"
        },
        {
          "internalType": "string",
          "name": "email",
          "type": "string"
        },
        {
          "internalType": "string",
          "name": "position",
          "type": "string"
        }
      ],
      "stateMutability": "view",
      "type": "function",
      "constant": true
    },
    {
      "inputs": [
        {
          "internalType": "string",
          "name": "_name",
          "type": "string"
        },
        {
          "internalType": "string",
          "name": "_email",
          "type": "string"
        },
        {
          "internalType": "string",
          "name": "_position",
          "type": "string"
        }
      ],
      "name": "registerEmployee",
      "outputs": [],
      "stateMutability": "nonpayable",
      "type": "function"
    },
    {
      "inputs": [
        {
          "internalType": "uint256",
          "name": "_id",
          "type": "uint256"
        }
      ],
      "name": "getEmployee",
      "outputs": [
        {
          "internalType": "uint256",
          "name": "",
          "type": "uint256"
        },
        {
          "internalType": "string",
          "name": "",
          "type": "string"
        },
        {
          "internalType": "string",
          "name": "",
          "type": "string"
        },
        {
          "internalType": "string",
          "name": "",
          "type": "string"
        }
      ],
      "stateMutability": "view",
      "type": "function",
      "constant": true
    },
    {
      "inputs": [],
      "name": "getAllEmployeeIds",
      "outputs": [
        {
          "internalType": "uint256[]",
          "name": "",
          "type": "uint256[]"
        }
      ],
      "stateMutability": "view",
      "type": "function",
      "constant": true
    }
  ],
  "bytecode": "0x608060405234801561001057600080fd5b50610ff2806100206000396000f3fe608060405234801561001057600080fd5b50600436106100625760003560e01c80630fd7d154146100675780631fcf522f1461009a57806339315bf1146100b85780633c783746146100e8578063bca9a5c514610104578063d872d73614610137575b600080fd5b610081600480360381019061007c9190610a35565b610167565b6040516100919493929190610ce7565b60405180910390f35b6100a261033c565b6040516100af9190610c3e565b60405180910390f35b6100d260048036038101906100cd9190610a0c565b6103d1565b6040516100df9190610ccc565b60405180910390f35b61010260048036038101906100fd9190610a71565b6103e9565b005b61011e60048036038101906101199190610b08565b610615565b60405161012e9493929190610ce7565b60405180910390f35b610151600480360381019061014c9190610a35565b6108a6565b60405161015e9190610ccc565b60405180910390f35b60006020528160005260406000206020528060005260406000206000915091505080600001549080600101805461019d90610e75565b80601f01602080910402602001604051908101604052809291908181526020018280546101c990610e75565b80156102165780601f106101eb57610100808354040283529160200191610216565b820191906000526020600020905b8154815290600101906020018083116101f957829003601f168201915b50505050509080600201805461022b90610e75565b80601f016020809104026020016040519081016040528092919081815260200182805461025790610e75565b80156102a45780601f10610279576101008083540402835291602001916102a4565b820191906000526020600020905b81548152906001019060200180831161028757829003601f168201915b5050505050908060030180546102b990610e75565b80601f01602080910402602001604051908101604052809291908181526020018280546102e590610e75565b80156103325780601f1061030757610100808354040283529160200191610332565b820191906000526020600020905b81548152906001019060200180831161031557829003601f168201915b5050505050905084565b6060600260003373ffffffffffffffffffffffffffffffffffffffff1673ffffffffffffffffffffffffffffffffffffffff1681526020019081526020016000208054806020026020016040519081016040528092919081815260200182805480156103c757602002820191906000526020600020905b8154815260200190600101908083116103b3575b5050505050905090565b60016020528060005260406000206000915090505481565b600160003373ffffffffffffffffffffffffffffffffffffffff1673ffffffffffffffffffffffffffffffffffffffff168152602001908152602001600020600081548092919061043990610ea7565b91905055506000600160003373ffffffffffffffffffffffffffffffffffffffff1673ffffffffffffffffffffffffffffffffffffffff1681526020019081526020016000205490506040518060800160405280828152602001858152602001848152602001838152506000803373ffffffffffffffffffffffffffffffffffffffff1673ffffffffffffffffffffffffffffffffffffffff16815260200190815260200160002060008381526020019081526020016000206000820151816000015560208201518160010190805190602001906105189291906108d7565b5060408201518160020190805190602001906105359291906108d7565b5060608201518160030190805190602001906105529291906108d7565b50905050600260003373ffffffffffffffffffffffffffffffffffffffff1673ffffffffffffffffffffffffffffffffffffffff168152602001908152602001600020819080600181540180825580915050600190039060005260206000200160009091909190915055803373ffffffffffffffffffffffffffffffffffffffff167fc639672eeef00753145227f2a80d2e20df546ecdef597888dae0bb4578b3860586868660405161060793929190610c60565b60405180910390a350505050565b6000606080606060008060003373ffffffffffffffffffffffffffffffffffffffff1673ffffffffffffffffffffffffffffffffffffffff16815260200190815260200160002060008781526020019081526020016000206040518060800160405290816000820154815260200160018201805461069290610e75565b80601f01602080910402602001604051908101604052809291908181526020018280546106be90610e75565b801561070b5780601f106106e05761010080835404028352916020019161070b565b820191906000526020600020905b8154815290600101906020018083116106ee57829003601f168201915b5050505050815260200160028201805461072490610e75565b80601f016020809104026020016040519081016040528092919081815260200182805461075090610e75565b801561079d5780601f106107725761010080835404028352916020019161079d565b820191906000526020600020905b81548152906001019060200180831161078057829003601f168201915b505050505081526020016003820180546107b690610e75565b80601f01602080910402602001604051908101604052809291908181526020018280546107e290610e75565b801561082f5780601f106108045761010080835404028352916020019161082f565b820191906000526020600020905b81548152906001019060200180831161081257829003601f168201915b5050505050815250509050600081600001511415610882576040517f08c379a000000000000000000000000000000000000000000000000000000000815260040161087990610cac565b60405180910390fd5b80600001518160200151826040015183606001519450945094509450509193509193565b600260205281600052604060002081815481106108c257600080fd5b90600052602060002001600091509150505481565b8280546108e390610e75565b90600052602060002090601f016020900481019282610905576000855561094c565b82601f1061091e57805160ff191683800117855561094c565b8280016001018555821561094c579182015b8281111561094b578251825591602001919060010190610930565b5b509050610959919061095d565b5090565b5b8082111561097657600081600090555060010161095e565b5090565b600061098d61098884610d72565b610d41565b9050828152602081018484840111156109a557600080fd5b6109b0848285610e33565b509392505050565b6000813590506109c781610f8e565b92915050565b600082601f8301126109de57600080fd5b81356109ee84826020860161097a565b91505092915050565b600081359050610a0681610fa5565b92915050565b600060208284031215610a1e57600080fd5b6000610a2c848285016109b8565b91505092915050565b60008060408385031215610a4857600080fd5b6000610a56858286016109b8565b9250506020610a67858286016109f7565b9150509250929050565b600080600060608486031215610a8657600080fd5b600084013567ffffffffffffffff811115610aa057600080fd5b610aac868287016109cd565b935050602084013567ffffffffffffffff811115610ac957600080fd5b610ad5868287016109cd565b925050604084013567ffffffffffffffff811115610af257600080fd5b610afe868287016109cd565b9150509250925092565b600060208284031215610b1a57600080fd5b6000610b28848285016109f7565b91505092915050565b6000610b3d8383610c20565b60208301905092915050565b6000610b5482610db2565b610b5e8185610dd5565b9350610b6983610da2565b8060005b83811015610b9a578151610b818882610b31565b9750610b8c83610dc8565b925050600181019050610b6d565b5085935050505092915050565b6000610bb282610dbd565b610bbc8185610de6565b9350610bcc818560208601610e42565b610bd581610f7d565b840191505092915050565b6000610bed601283610de6565b91507f456d706c6f796565206e6f7420666f756e6400000000000000000000000000006000830152602082019050919050565b610c2981610e29565b82525050565b610c3881610e29565b82525050565b60006020820190508181036000830152610c588184610b49565b905092915050565b60006060820190508181036000830152610c7a8186610ba7565b90508181036020830152610c8e8185610ba7565b90508181036040830152610ca28184610ba7565b9050949350505050565b60006020820190508181036000830152610cc581610be0565b9050919050565b6000602082019050610ce16000830184610c2f565b92915050565b6000608082019050610cfc6000830187610c2f565b8181036020830152610d0e8186610ba7565b90508181036040830152610d228185610ba7565b90508181036060830152610d368184610ba7565b905095945050505050565b6000604051905081810181811067ffffffffffffffff82111715610d6857610d67610f4e565b5b8060405250919050565b600067ffffffffffffffff821115610d8d57610d8c610f4e565b5b601f19601f8301169050602081019050919050565b6000819050602082019050919050565b600081519050919050565b600081519050919050565b6000602082019050919050565b600082825260208201905092915050565b600082825260208201905092915050565b6000610e0282610e09565b9050919050565b600073ffffffffffffffffffffffffffffffffffffffff82169050919050565b6000819050919050565b82818337600083830152505050565b60005b83811015610e60578082015181840152602081019050610e45565b83811115610e6f576000848401525b50505050565b60006002820490506001821680610e8d57607f821691505b60208210811415610ea157610ea0610f1f565b5b50919050565b6000610eb282610e29565b91507fffffffffffffffffffffffffffffffffffffffffffffffffffffffffffffffff821415610ee557610ee4610ef0565b5b600182019050919050565b7f4e487b7100000000000000000000000000000000000000000000000000000000600052601160045260246000fd5b7f4e487b7100000000000000000000000000000000000000000000000000000000600052602260045260246000fd5b7f4e487b7100000000000000000000000000000000000000000000000000000000600052604160045260246000fd5b6000601f19601f8301169050919050565b610f9781610df7565b8114610fa257600080fd5b50565b610fae81610e29565b8114610fb957600080fd5b5056fea2646970667358221220bfecfec0721aee71ba2acaf9745705f9ea3dbe7342cce2b3d787578d2124741464736f6c63430008000033",
  "immutableReferences": {},
  "source": "// SPDX-License-Identifier: MIT\r\npragma solidity ^0.8.0;\r\n\r\ncontract EmployeeRegistration {\r\n    struct Employee {\r\n        uint id;\r\n        string name;\r\n        string email;\r\n        string position;\r\n    }\r\n\r\n    mapping(address => mapping(uint => Employee)) public employees;\r\n    mapping(address => uint) public employeeCount;\r\n    mapping(address => uint[]) public employeeIds;\r\n\r\n    event EmployeeRegistered(\r\n        address indexed registrant,\r\n        uint indexed id,\r\n        string name,\r\n        string email,\r\n        string position\r\n    );\r\n\r\n    function registerEmployee(\r\n        string memory _name,\r\n        string memory _email,\r\n        string memory _position\r\n    ) public {\r\n        employeeCount[msg.sender]++;\r\n        uint newEmployeeId = employeeCount[msg.sender];\r\n\r\n        employees[msg.sender][newEmployeeId] = Employee(\r\n            newEmployeeId,\r\n            _name,\r\n            _email,\r\n            _position\r\n        );\r\n        employeeIds[msg.sender].push(newEmployeeId);\r\n\r\n        emit EmployeeRegistered(\r\n            msg.sender,\r\n            newEmployeeId,\r\n            _name,\r\n            _email,\r\n            _position\r\n        );\r\n    }\r\n\r\n    function getEmployee(uint _id)\r\n        public\r\n        view\r\n        returns (\r\n            uint,\r\n            string memory,\r\n            string memory,\r\n            string memory\r\n        )\r\n    {\r\n        Employee memory emp = employees[msg.sender][_id];\r\n        require(emp.id != 0, \"Employee not found\");\r\n        return (emp.id, emp.name, emp.email, emp.position);\r\n    }\r\n\r\n    function getAllEmployeeIds() public view returns (uint[] memory) {\r\n        return employeeIds[msg.sender];\r\n    }\r\n}\r\n",
  "sourcePath": "D:\\blockchain_new\\New folder\\EmployeeRegistration\\contracts\\EmployeeRegistration.sol",
  "compiler": {
    "name": "solc",
    "version": "0.8.0+commit.c7dfd78e.Emscripten.clang"
  },
  "schemaVersion": "3.4.16",
  "updatedAt": "2024-10-18T17:05:54.209Z",
  "networkType": "ethereum",
  "devdoc": {
    "kind": "dev",
    "methods": {},
    "version": 1
  },
  "userdoc": {
    "kind": "user",
    "methods": {},
    "version": 1
  }
}